0120547453035100PEN20160307000                                                                                                                                                                                                                                                                                                                                          
02PIERO RODRIGO GARBOZO ZAMUDIO HU2015-174MARZO                                 201603312017043000000000000038000000000000038000000000000000000000000000000000000000000000000000000000000000000000000000000000000000000000000000000000000000000000000000000000000000000000000000000000000000000000000000000000000000L000000000000000                                 
02PIERO RODRIGO GARBOZO ZAMUDIO HU2015-174ABRIL                                 201604302017053100000000000038000000000000038000000000000000000000000000000000000000000000000000000000000000000000000000000000000000000000000000000000000000000000000000000000000000000000000000000000000000000000000000000000000000L000000000000000                                 
02PIERO RODRIGO GARBOZO ZAMUDIO HU2015-174MAYO                                  201605312017063000000000000038000000000000038000000000000000000000000000000000000000000000000000000000000000000000000000000000000000000000000000000000000000000000000000000000000000000000000000000000000000000000000000000000000000L000000000000000                                 
02PIERO RODRIGO GARBOZO ZAMUDIO HU2015-174JUNIO                                 201606302017073100000000000038000000000000038000000000000000000000000000000000000000000000000000000000000000000000000000000000000000000000000000000000000000000000000000000000000000000000000000000000000000000000000000000000000000L000000000000000                                 
02PIERO RODRIGO GARBOZO ZAMUDIO HU2015-174JULIO                                 201607312017083100000000000038000000000000038000000000000000000000000000000000000000000000000000000000000000000000000000000000000000000000000000000000000000000000000000000000000000000000000000000000000000000000000000000000000000L000000000000000                                 
02PIERO RODRIGO GARBOZO ZAMUDIO HU2015-174AGOSTO                                201608312017093000000000000038000000000000038000000000000000000000000000000000000000000000000000000000000000000000000000000000000000000000000000000000000000000000000000000000000000000000000000000000000000000000000000000000000000L000000000000000                                 
02PIERO RODRIGO GARBOZO ZAMUDIO HU2015-174SETIEMBRE                             201609302017103100000000000038000000000000038000000000000000000000000000000000000000000000000000000000000000000000000000000000000000000000000000000000000000000000000000000000000000000000000000000000000000000000000000000000000000L000000000000000                                 
02PIERO RODRIGO GARBOZO ZAMUDIO HU2015-174OCTUBRE                               201610312017113000000000000038000000000000038000000000000000000000000000000000000000000000000000000000000000000000000000000000000000000000000000000000000000000000000000000000000000000000000000000000000000000000000000000000000000L000000000000000                                 
02PIERO RODRIGO GARBOZO ZAMUDIO HU2015-174NOVIEMBRE                             201611302017123100000000000038000000000000038000000000000000000000000000000000000000000000000000000000000000000000000000000000000000000000000000000000000000000000000000000000000000000000000000000000000000000000000000000000000000L000000000000000                                 
02PIERO RODRIGO GARBOZO ZAMUDIO HU2015-174DICIEMBRE                             201612312018013100000000000038000000000000038000000000000000000000000000000000000000000000000000000000000000000000000000000000000000000000000000000000000000000000000000000000000000000000000000000000000000000000000000000000000000L000000000000000                                 
02CAMILA VALLE ROMERO           HU2015-001MARZO                                 201603312017043000000000000038000000000000038000000000000000000000000000000000000000000000000000000000000000000000000000000000000000000000000000000000000000000000000000000000000000000000000000000000000000000000000000000000000000L000000000000000                                 
02CAMILA VALLE ROMERO           HU2015-001ABRIL                                 201604302017053100000000000038000000000000038000000000000000000000000000000000000000000000000000000000000000000000000000000000000000000000000000000000000000000000000000000000000000000000000000000000000000000000000000000000000000L000000000000000                                 
02CAMILA VALLE ROMERO           HU2015-001MAYO                                  201605312017063000000000000038000000000000038000000000000000000000000000000000000000000000000000000000000000000000000000000000000000000000000000000000000000000000000000000000000000000000000000000000000000000000000000000000000000L000000000000000                                 
02CAMILA VALLE ROMERO           HU2015-001JUNIO                                 201606302017073100000000000038000000000000038000000000000000000000000000000000000000000000000000000000000000000000000000000000000000000000000000000000000000000000000000000000000000000000000000000000000000000000000000000000000000L000000000000000                                 
02CAMILA VALLE ROMERO           HU2015-001JULIO                                 201607312017083100000000000038000000000000038000000000000000000000000000000000000000000000000000000000000000000000000000000000000000000000000000000000000000000000000000000000000000000000000000000000000000000000000000000000000000L000000000000000                                 
02CAMILA VALLE ROMERO           HU2015-001AGOSTO                                201608312017093000000000000038000000000000038000000000000000000000000000000000000000000000000000000000000000000000000000000000000000000000000000000000000000000000000000000000000000000000000000000000000000000000000000000000000000L000000000000000                                 
02CAMILA VALLE ROMERO           HU2015-001SETIEMBRE                             201609302017103100000000000038000000000000038000000000000000000000000000000000000000000000000000000000000000000000000000000000000000000000000000000000000000000000000000000000000000000000000000000000000000000000000000000000000000L000000000000000                                 
02CAMILA VALLE ROMERO           HU2015-001OCTUBRE                               201610312017113000000000000038000000000000038000000000000000000000000000000000000000000000000000000000000000000000000000000000000000000000000000000000000000000000000000000000000000000000000000000000000000000000000000000000000000L000000000000000                                 
02CAMILA VALLE ROMERO           HU2015-001NOVIEMBRE                             201611302017123100000000000038000000000000038000000000000000000000000000000000000000000000000000000000000000000000000000000000000000000000000000000000000000000000000000000000000000000000000000000000000000000000000000000000000000L000000000000000                                 
02CAMILA VALLE ROMERO           HU2015-001DICIEMBRE                             201612312018013100000000000038000000000000038000000000000000000000000000000000000000000000000000000000000000000000000000000000000000000000000000000000000000000000000000000000000000000000000000000000000000000000000000000000000000L000000000000000                                 
02RAFAEL SOTO VICENTE           HU2015-002MARZO                                 201603312017043000000000000038000000000000038000000000000000000000000000000000000000000000000000000000000000000000000000000000000000000000000000000000000000000000000000000000000000000000000000000000000000000000000000000000000000L000000000000000                                 
02RAFAEL SOTO VICENTE           HU2015-002ABRIL                                 201604302017053100000000000038000000000000038000000000000000000000000000000000000000000000000000000000000000000000000000000000000000000000000000000000000000000000000000000000000000000000000000000000000000000000000000000000000000L000000000000000                                 
02RAFAEL SOTO VICENTE           HU2015-002MAYO                                  201605312017063000000000000038000000000000038000000000000000000000000000000000000000000000000000000000000000000000000000000000000000000000000000000000000000000000000000000000000000000000000000000000000000000000000000000000000000L000000000000000                                 
02RAFAEL SOTO VICENTE           HU2015-002JUNIO                                 201606302017073100000000000038000000000000038000000000000000000000000000000000000000000000000000000000000000000000000000000000000000000000000000000000000000000000000000000000000000000000000000000000000000000000000000000000000000L000000000000000                                 
02RAFAEL SOTO VICENTE           HU2015-002JULIO                                 201607312017083100000000000038000000000000038000000000000000000000000000000000000000000000000000000000000000000000000000000000000000000000000000000000000000000000000000000000000000000000000000000000000000000000000000000000000000L000000000000000                                 
02RAFAEL SOTO VICENTE           HU2015-002AGOSTO                                201608312017093000000000000038000000000000038000000000000000000000000000000000000000000000000000000000000000000000000000000000000000000000000000000000000000000000000000000000000000000000000000000000000000000000000000000000000000L000000000000000                                 
02RAFAEL SOTO VICENTE           HU2015-002SETIEMBRE                             201609302017103100000000000038000000000000038000000000000000000000000000000000000000000000000000000000000000000000000000000000000000000000000000000000000000000000000000000000000000000000000000000000000000000000000000000000000000L000000000000000                                 
02RAFAEL SOTO VICENTE           HU2015-002OCTUBRE                               201610312017113000000000000038000000000000038000000000000000000000000000000000000000000000000000000000000000000000000000000000000000000000000000000000000000000000000000000000000000000000000000000000000000000000000000000000000000L000000000000000                                 
02RAFAEL SOTO VICENTE           HU2015-002NOVIEMBRE                             201611302017123100000000000038000000000000038000000000000000000000000000000000000000000000000000000000000000000000000000000000000000000000000000000000000000000000000000000000000000000000000000000000000000000000000000000000000000L000000000000000                                 
02RAFAEL SOTO VICENTE           HU2015-002DICIEMBRE                             201612312018013100000000000038000000000000038000000000000000000000000000000000000000000000000000000000000000000000000000000000000000000000000000000000000000000000000000000000000000000000000000000000000000000000000000000000000000L000000000000000                                 
02MERY RAMOS INONAN             HU2015-003MARZO                                 201603312017043000000000000038000000000000038000000000000000000000000000000000000000000000000000000000000000000000000000000000000000000000000000000000000000000000000000000000000000000000000000000000000000000000000000000000000000L000000000000000                                 
02MERY RAMOS INONAN             HU2015-003ABRIL                                 201604302017053100000000000038000000000000038000000000000000000000000000000000000000000000000000000000000000000000000000000000000000000000000000000000000000000000000000000000000000000000000000000000000000000000000000000000000000L000000000000000                                 
02MERY RAMOS INONAN             HU2015-003MAYO                                  201605312017063000000000000038000000000000038000000000000000000000000000000000000000000000000000000000000000000000000000000000000000000000000000000000000000000000000000000000000000000000000000000000000000000000000000000000000000L000000000000000                                 
02MERY RAMOS INONAN             HU2015-003JUNIO                                 201606302017073100000000000038000000000000038000000000000000000000000000000000000000000000000000000000000000000000000000000000000000000000000000000000000000000000000000000000000000000000000000000000000000000000000000000000000000L000000000000000                                 
02MERY RAMOS INONAN             HU2015-003JULIO                                 201607312017083100000000000038000000000000038000000000000000000000000000000000000000000000000000000000000000000000000000000000000000000000000000000000000000000000000000000000000000000000000000000000000000000000000000000000000000L000000000000000                                 
02MERY RAMOS INONAN             HU2015-003AGOSTO                                201608312017093000000000000038000000000000038000000000000000000000000000000000000000000000000000000000000000000000000000000000000000000000000000000000000000000000000000000000000000000000000000000000000000000000000000000000000000L000000000000000                                 
02MERY RAMOS INONAN             HU2015-003SETIEMBRE                             201609302017103100000000000038000000000000038000000000000000000000000000000000000000000000000000000000000000000000000000000000000000000000000000000000000000000000000000000000000000000000000000000000000000000000000000000000000000L000000000000000                                 
02MERY RAMOS INONAN             HU2015-003OCTUBRE                               201610312017113000000000000038000000000000038000000000000000000000000000000000000000000000000000000000000000000000000000000000000000000000000000000000000000000000000000000000000000000000000000000000000000000000000000000000000000L000000000000000                                 
02MERY RAMOS INONAN             HU2015-003NOVIEMBRE                             201611302017123100000000000038000000000000038000000000000000000000000000000000000000000000000000000000000000000000000000000000000000000000000000000000000000000000000000000000000000000000000000000000000000000000000000000000000000L000000000000000                                 
02MERY RAMOS INONAN             HU2015-003DICIEMBRE                             201612312018013100000000000038000000000000038000000000000000000000000000000000000000000000000000000000000000000000000000000000000000000000000000000000000000000000000000000000000000000000000000000000000000000000000000000000000000L000000000000000                                 
02RODRIGO SANCHEZ CHAVEZ        HU2015-004MARZO                                 201603312017043000000000000038000000000000038000000000000000000000000000000000000000000000000000000000000000000000000000000000000000000000000000000000000000000000000000000000000000000000000000000000000000000000000000000000000000L000000000000000                                 
02RODRIGO SANCHEZ CHAVEZ        HU2015-004ABRIL                                 201604302017053100000000000038000000000000038000000000000000000000000000000000000000000000000000000000000000000000000000000000000000000000000000000000000000000000000000000000000000000000000000000000000000000000000000000000000000L000000000000000                                 
02RODRIGO SANCHEZ CHAVEZ        HU2015-004MAYO                                  201605312017063000000000000038000000000000038000000000000000000000000000000000000000000000000000000000000000000000000000000000000000000000000000000000000000000000000000000000000000000000000000000000000000000000000000000000000000L000000000000000                                 
02RODRIGO SANCHEZ CHAVEZ        HU2015-004JUNIO                                 201606302017073100000000000038000000000000038000000000000000000000000000000000000000000000000000000000000000000000000000000000000000000000000000000000000000000000000000000000000000000000000000000000000000000000000000000000000000L000000000000000                                 
02RODRIGO SANCHEZ CHAVEZ        HU2015-004JULIO                                 201607312017083100000000000038000000000000038000000000000000000000000000000000000000000000000000000000000000000000000000000000000000000000000000000000000000000000000000000000000000000000000000000000000000000000000000000000000000L000000000000000                                 
02RODRIGO SANCHEZ CHAVEZ        HU2015-004AGOSTO                                201608312017093000000000000038000000000000038000000000000000000000000000000000000000000000000000000000000000000000000000000000000000000000000000000000000000000000000000000000000000000000000000000000000000000000000000000000000000L000000000000000                                 
02RODRIGO SANCHEZ CHAVEZ        HU2015-004SETIEMBRE                             201609302017103100000000000038000000000000038000000000000000000000000000000000000000000000000000000000000000000000000000000000000000000000000000000000000000000000000000000000000000000000000000000000000000000000000000000000000000L000000000000000                                 
02RODRIGO SANCHEZ CHAVEZ        HU2015-004OCTUBRE                               201610312017113000000000000038000000000000038000000000000000000000000000000000000000000000000000000000000000000000000000000000000000000000000000000000000000000000000000000000000000000000000000000000000000000000000000000000000000L000000000000000                                 
02RODRIGO SANCHEZ CHAVEZ        HU2015-004NOVIEMBRE                             201611302017123100000000000038000000000000038000000000000000000000000000000000000000000000000000000000000000000000000000000000000000000000000000000000000000000000000000000000000000000000000000000000000000000000000000000000000000L000000000000000                                 
02RODRIGO SANCHEZ CHAVEZ        HU2015-004DICIEMBRE                             201612312018013100000000000038000000000000038000000000000000000000000000000000000000000000000000000000000000000000000000000000000000000000000000000000000000000000000000000000000000000000000000000000000000000000000000000000000000L000000000000000                                 
02MARICIELO ANDIA HILARIO       HU2015-005MARZO                                 201603312017043000000000000038000000000000038000000000000000000000000000000000000000000000000000000000000000000000000000000000000000000000000000000000000000000000000000000000000000000000000000000000000000000000000000000000000000L000000000000000                                 
02MARICIELO ANDIA HILARIO       HU2015-005ABRIL                                 201604302017053100000000000038000000000000038000000000000000000000000000000000000000000000000000000000000000000000000000000000000000000000000000000000000000000000000000000000000000000000000000000000000000000000000000000000000000L000000000000000                                 
02MARICIELO ANDIA HILARIO       HU2015-005MAYO                                  201605312017063000000000000038000000000000038000000000000000000000000000000000000000000000000000000000000000000000000000000000000000000000000000000000000000000000000000000000000000000000000000000000000000000000000000000000000000L000000000000000                                 
02MARICIELO ANDIA HILARIO       HU2015-005JUNIO                                 201606302017073100000000000038000000000000038000000000000000000000000000000000000000000000000000000000000000000000000000000000000000000000000000000000000000000000000000000000000000000000000000000000000000000000000000000000000000L000000000000000                                 
02MARICIELO ANDIA HILARIO       HU2015-005JULIO                                 201607312017083100000000000038000000000000038000000000000000000000000000000000000000000000000000000000000000000000000000000000000000000000000000000000000000000000000000000000000000000000000000000000000000000000000000000000000000L000000000000000                                 
02MARICIELO ANDIA HILARIO       HU2015-005AGOSTO                                201608312017093000000000000038000000000000038000000000000000000000000000000000000000000000000000000000000000000000000000000000000000000000000000000000000000000000000000000000000000000000000000000000000000000000000000000000000000L000000000000000                                 
02MARICIELO ANDIA HILARIO       HU2015-005SETIEMBRE                             201609302017103100000000000038000000000000038000000000000000000000000000000000000000000000000000000000000000000000000000000000000000000000000000000000000000000000000000000000000000000000000000000000000000000000000000000000000000L000000000000000                                 
02MARICIELO ANDIA HILARIO       HU2015-005OCTUBRE                               201610312017113000000000000038000000000000038000000000000000000000000000000000000000000000000000000000000000000000000000000000000000000000000000000000000000000000000000000000000000000000000000000000000000000000000000000000000000L000000000000000                                 
02MARICIELO ANDIA HILARIO       HU2015-005NOVIEMBRE                             201611302017123100000000000038000000000000038000000000000000000000000000000000000000000000000000000000000000000000000000000000000000000000000000000000000000000000000000000000000000000000000000000000000000000000000000000000000000L000000000000000                                 
02MARICIELO ANDIA HILARIO       HU2015-005DICIEMBRE                             201612312018013100000000000038000000000000038000000000000000000000000000000000000000000000000000000000000000000000000000000000000000000000000000000000000000000000000000000000000000000000000000000000000000000000000000000000000000L000000000000000                                 
02VALERIA CASANOVA AROSTEGUI    HU2015-006MARZO                                 201603312017043000000000000038000000000000038000000000000000000000000000000000000000000000000000000000000000000000000000000000000000000000000000000000000000000000000000000000000000000000000000000000000000000000000000000000000000L000000000000000                                 
02VALERIA CASANOVA AROSTEGUI    HU2015-006ABRIL                                 201604302017053100000000000038000000000000038000000000000000000000000000000000000000000000000000000000000000000000000000000000000000000000000000000000000000000000000000000000000000000000000000000000000000000000000000000000000000L000000000000000                                 
02VALERIA CASANOVA AROSTEGUI    HU2015-006MAYO                                  201605312017063000000000000038000000000000038000000000000000000000000000000000000000000000000000000000000000000000000000000000000000000000000000000000000000000000000000000000000000000000000000000000000000000000000000000000000000L000000000000000                                 
02VALERIA CASANOVA AROSTEGUI    HU2015-006JUNIO                                 201606302017073100000000000038000000000000038000000000000000000000000000000000000000000000000000000000000000000000000000000000000000000000000000000000000000000000000000000000000000000000000000000000000000000000000000000000000000L000000000000000                                 
02VALERIA CASANOVA AROSTEGUI    HU2015-006JULIO                                 201607312017083100000000000038000000000000038000000000000000000000000000000000000000000000000000000000000000000000000000000000000000000000000000000000000000000000000000000000000000000000000000000000000000000000000000000000000000L000000000000000                                 
02VALERIA CASANOVA AROSTEGUI    HU2015-006AGOSTO                                201608312017093000000000000038000000000000038000000000000000000000000000000000000000000000000000000000000000000000000000000000000000000000000000000000000000000000000000000000000000000000000000000000000000000000000000000000000000L000000000000000                                 
02VALERIA CASANOVA AROSTEGUI    HU2015-006SETIEMBRE                             201609302017103100000000000038000000000000038000000000000000000000000000000000000000000000000000000000000000000000000000000000000000000000000000000000000000000000000000000000000000000000000000000000000000000000000000000000000000L000000000000000                                 
02VALERIA CASANOVA AROSTEGUI    HU2015-006OCTUBRE                               201610312017113000000000000038000000000000038000000000000000000000000000000000000000000000000000000000000000000000000000000000000000000000000000000000000000000000000000000000000000000000000000000000000000000000000000000000000000L000000000000000                                 
02VALERIA CASANOVA AROSTEGUI    HU2015-006NOVIEMBRE                             201611302017123100000000000038000000000000038000000000000000000000000000000000000000000000000000000000000000000000000000000000000000000000000000000000000000000000000000000000000000000000000000000000000000000000000000000000000000L000000000000000                                 
02VALERIA CASANOVA AROSTEGUI    HU2015-006DICIEMBRE                             201612312018013100000000000038000000000000038000000000000000000000000000000000000000000000000000000000000000000000000000000000000000000000000000000000000000000000000000000000000000000000000000000000000000000000000000000000000000L000000000000000                                 
02NOEMI MISHELL ROSALES LIPA    HU2015-007MARZO                                 201603312017043000000000000038000000000000038000000000000000000000000000000000000000000000000000000000000000000000000000000000000000000000000000000000000000000000000000000000000000000000000000000000000000000000000000000000000000L000000000000000                                 
02NOEMI MISHELL ROSALES LIPA    HU2015-007ABRIL                                 201604302017053100000000000038000000000000038000000000000000000000000000000000000000000000000000000000000000000000000000000000000000000000000000000000000000000000000000000000000000000000000000000000000000000000000000000000000000L000000000000000                                 
02NOEMI MISHELL ROSALES LIPA    HU2015-007MAYO                                  201605312017063000000000000038000000000000038000000000000000000000000000000000000000000000000000000000000000000000000000000000000000000000000000000000000000000000000000000000000000000000000000000000000000000000000000000000000000L000000000000000                                 
02NOEMI MISHELL ROSALES LIPA    HU2015-007JUNIO                                 201606302017073100000000000038000000000000038000000000000000000000000000000000000000000000000000000000000000000000000000000000000000000000000000000000000000000000000000000000000000000000000000000000000000000000000000000000000000L000000000000000                                 
02NOEMI MISHELL ROSALES LIPA    HU2015-007JULIO                                 201607312017083100000000000038000000000000038000000000000000000000000000000000000000000000000000000000000000000000000000000000000000000000000000000000000000000000000000000000000000000000000000000000000000000000000000000000000000L000000000000000                                 
02NOEMI MISHELL ROSALES LIPA    HU2015-007AGOSTO                                201608312017093000000000000038000000000000038000000000000000000000000000000000000000000000000000000000000000000000000000000000000000000000000000000000000000000000000000000000000000000000000000000000000000000000000000000000000000L000000000000000                                 
02NOEMI MISHELL ROSALES LIPA    HU2015-007SETIEMBRE                             201609302017103100000000000038000000000000038000000000000000000000000000000000000000000000000000000000000000000000000000000000000000000000000000000000000000000000000000000000000000000000000000000000000000000000000000000000000000L000000000000000                                 
02NOEMI MISHELL ROSALES LIPA    HU2015-007OCTUBRE                               201610312017113000000000000038000000000000038000000000000000000000000000000000000000000000000000000000000000000000000000000000000000000000000000000000000000000000000000000000000000000000000000000000000000000000000000000000000000L000000000000000                                 
02NOEMI MISHELL ROSALES LIPA    HU2015-007NOVIEMBRE                             201611302017123100000000000038000000000000038000000000000000000000000000000000000000000000000000000000000000000000000000000000000000000000000000000000000000000000000000000000000000000000000000000000000000000000000000000000000000L000000000000000                                 
02NOEMI MISHELL ROSALES LIPA    HU2015-007DICIEMBRE                             201612312018013100000000000038000000000000038000000000000000000000000000000000000000000000000000000000000000000000000000000000000000000000000000000000000000000000000000000000000000000000000000000000000000000000000000000000000000L000000000000000                                 
02JAIR GABRIEL CORDERO ESPINOZA HU2015-008MARZO                                 201603312017043000000000000038000000000000038000000000000000000000000000000000000000000000000000000000000000000000000000000000000000000000000000000000000000000000000000000000000000000000000000000000000000000000000000000000000000L000000000000000                                 
02JAIR GABRIEL CORDERO ESPINOZA HU2015-008ABRIL                                 201604302017053100000000000038000000000000038000000000000000000000000000000000000000000000000000000000000000000000000000000000000000000000000000000000000000000000000000000000000000000000000000000000000000000000000000000000000000L000000000000000                                 
02JAIR GABRIEL CORDERO ESPINOZA HU2015-008MAYO                                  201605312017063000000000000038000000000000038000000000000000000000000000000000000000000000000000000000000000000000000000000000000000000000000000000000000000000000000000000000000000000000000000000000000000000000000000000000000000L000000000000000                                 
02JAIR GABRIEL CORDERO ESPINOZA HU2015-008JUNIO                                 201606302017073100000000000038000000000000038000000000000000000000000000000000000000000000000000000000000000000000000000000000000000000000000000000000000000000000000000000000000000000000000000000000000000000000000000000000000000L000000000000000                                 
02JAIR GABRIEL CORDERO ESPINOZA HU2015-008JULIO                                 201607312017083100000000000038000000000000038000000000000000000000000000000000000000000000000000000000000000000000000000000000000000000000000000000000000000000000000000000000000000000000000000000000000000000000000000000000000000L000000000000000                                 
02JAIR GABRIEL CORDERO ESPINOZA HU2015-008AGOSTO                                201608312017093000000000000038000000000000038000000000000000000000000000000000000000000000000000000000000000000000000000000000000000000000000000000000000000000000000000000000000000000000000000000000000000000000000000000000000000L000000000000000                                 
02JAIR GABRIEL CORDERO ESPINOZA HU2015-008SETIEMBRE                             201609302017103100000000000038000000000000038000000000000000000000000000000000000000000000000000000000000000000000000000000000000000000000000000000000000000000000000000000000000000000000000000000000000000000000000000000000000000L000000000000000                                 
02JAIR GABRIEL CORDERO ESPINOZA HU2015-008OCTUBRE                               201610312017113000000000000038000000000000038000000000000000000000000000000000000000000000000000000000000000000000000000000000000000000000000000000000000000000000000000000000000000000000000000000000000000000000000000000000000000L000000000000000                                 
02JAIR GABRIEL CORDERO ESPINOZA HU2015-008NOVIEMBRE                             201611302017123100000000000038000000000000038000000000000000000000000000000000000000000000000000000000000000000000000000000000000000000000000000000000000000000000000000000000000000000000000000000000000000000000000000000000000000L000000000000000                                 
02JAIR GABRIEL CORDERO ESPINOZA HU2015-008DICIEMBRE                             201612312018013100000000000038000000000000038000000000000000000000000000000000000000000000000000000000000000000000000000000000000000000000000000000000000000000000000000000000000000000000000000000000000000000000000000000000000000L000000000000000                                 
02EDUARDO MORALES FALCONI       HU2015-009MARZO                                 201603312017043000000000000038000000000000038000000000000000000000000000000000000000000000000000000000000000000000000000000000000000000000000000000000000000000000000000000000000000000000000000000000000000000000000000000000000000L000000000000000                                 
02EDUARDO MORALES FALCONI       HU2015-009ABRIL                                 201604302017053100000000000038000000000000038000000000000000000000000000000000000000000000000000000000000000000000000000000000000000000000000000000000000000000000000000000000000000000000000000000000000000000000000000000000000000L000000000000000                                 
02EDUARDO MORALES FALCONI       HU2015-009MAYO                                  201605312017063000000000000038000000000000038000000000000000000000000000000000000000000000000000000000000000000000000000000000000000000000000000000000000000000000000000000000000000000000000000000000000000000000000000000000000000L000000000000000                                 
02EDUARDO MORALES FALCONI       HU2015-009JUNIO                                 201606302017073100000000000038000000000000038000000000000000000000000000000000000000000000000000000000000000000000000000000000000000000000000000000000000000000000000000000000000000000000000000000000000000000000000000000000000000L000000000000000                                 
02EDUARDO MORALES FALCONI       HU2015-009JULIO                                 201607312017083100000000000038000000000000038000000000000000000000000000000000000000000000000000000000000000000000000000000000000000000000000000000000000000000000000000000000000000000000000000000000000000000000000000000000000000L000000000000000                                 
02EDUARDO MORALES FALCONI       HU2015-009AGOSTO                                201608312017093000000000000038000000000000038000000000000000000000000000000000000000000000000000000000000000000000000000000000000000000000000000000000000000000000000000000000000000000000000000000000000000000000000000000000000000L000000000000000                                 
02EDUARDO MORALES FALCONI       HU2015-009SETIEMBRE                             201609302017103100000000000038000000000000038000000000000000000000000000000000000000000000000000000000000000000000000000000000000000000000000000000000000000000000000000000000000000000000000000000000000000000000000000000000000000L000000000000000                                 
02EDUARDO MORALES FALCONI       HU2015-009OCTUBRE                               201610312017113000000000000038000000000000038000000000000000000000000000000000000000000000000000000000000000000000000000000000000000000000000000000000000000000000000000000000000000000000000000000000000000000000000000000000000000L000000000000000                                 
02EDUARDO MORALES FALCONI       HU2015-009NOVIEMBRE                             201611302017123100000000000038000000000000038000000000000000000000000000000000000000000000000000000000000000000000000000000000000000000000000000000000000000000000000000000000000000000000000000000000000000000000000000000000000000L000000000000000                                 
02EDUARDO MORALES FALCONI       HU2015-009DICIEMBRE                             201612312018013100000000000038000000000000038000000000000000000000000000000000000000000000000000000000000000000000000000000000000000000000000000000000000000000000000000000000000000000000000000000000000000000000000000000000000000L000000000000000                                 
02MIA SCARLETT PORTAL RUIZ      HU2015-010MARZO                                 201603312017043000000000000038000000000000038000000000000000000000000000000000000000000000000000000000000000000000000000000000000000000000000000000000000000000000000000000000000000000000000000000000000000000000000000000000000000L000000000000000                                 
02MIA SCARLETT PORTAL RUIZ      HU2015-010ABRIL                                 201604302017053100000000000038000000000000038000000000000000000000000000000000000000000000000000000000000000000000000000000000000000000000000000000000000000000000000000000000000000000000000000000000000000000000000000000000000000L000000000000000                                 
02MIA SCARLETT PORTAL RUIZ      HU2015-010MAYO                                  201605312017063000000000000038000000000000038000000000000000000000000000000000000000000000000000000000000000000000000000000000000000000000000000000000000000000000000000000000000000000000000000000000000000000000000000000000000000L000000000000000                                 
02MIA SCARLETT PORTAL RUIZ      HU2015-010JUNIO                                 201606302017073100000000000038000000000000038000000000000000000000000000000000000000000000000000000000000000000000000000000000000000000000000000000000000000000000000000000000000000000000000000000000000000000000000000000000000000L000000000000000                                 
02MIA SCARLETT PORTAL RUIZ      HU2015-010JULIO                                 201607312017083100000000000038000000000000038000000000000000000000000000000000000000000000000000000000000000000000000000000000000000000000000000000000000000000000000000000000000000000000000000000000000000000000000000000000000000L000000000000000                                 
02MIA SCARLETT PORTAL RUIZ      HU2015-010AGOSTO                                201608312017093000000000000038000000000000038000000000000000000000000000000000000000000000000000000000000000000000000000000000000000000000000000000000000000000000000000000000000000000000000000000000000000000000000000000000000000L000000000000000                                 
02MIA SCARLETT PORTAL RUIZ      HU2015-010SETIEMBRE                             201609302017103100000000000038000000000000038000000000000000000000000000000000000000000000000000000000000000000000000000000000000000000000000000000000000000000000000000000000000000000000000000000000000000000000000000000000000000L000000000000000                                 
02MIA SCARLETT PORTAL RUIZ      HU2015-010OCTUBRE                               201610312017113000000000000038000000000000038000000000000000000000000000000000000000000000000000000000000000000000000000000000000000000000000000000000000000000000000000000000000000000000000000000000000000000000000000000000000000L000000000000000                                 
02MIA SCARLETT PORTAL RUIZ      HU2015-010NOVIEMBRE                             201611302017123100000000000038000000000000038000000000000000000000000000000000000000000000000000000000000000000000000000000000000000000000000000000000000000000000000000000000000000000000000000000000000000000000000000000000000000L000000000000000                                 
02MIA SCARLETT PORTAL RUIZ      HU2015-010DICIEMBRE                             201612312018013100000000000038000000000000038000000000000000000000000000000000000000000000000000000000000000000000000000000000000000000000000000000000000000000000000000000000000000000000000000000000000000000000000000000000000000L000000000000000                                 
02LUCIANA MILAGROS CABANILLAS CAHU2015-011MARZO                                 201603312017043000000000000038000000000000038000000000000000000000000000000000000000000000000000000000000000000000000000000000000000000000000000000000000000000000000000000000000000000000000000000000000000000000000000000000000000L000000000000000                                 
02LUCIANA MILAGROS CABANILLAS CAHU2015-011ABRIL                                 201604302017053100000000000038000000000000038000000000000000000000000000000000000000000000000000000000000000000000000000000000000000000000000000000000000000000000000000000000000000000000000000000000000000000000000000000000000000L000000000000000                                 
02LUCIANA MILAGROS CABANILLAS CAHU2015-011MAYO                                  201605312017063000000000000038000000000000038000000000000000000000000000000000000000000000000000000000000000000000000000000000000000000000000000000000000000000000000000000000000000000000000000000000000000000000000000000000000000L000000000000000                                 
02LUCIANA MILAGROS CABANILLAS CAHU2015-011JUNIO                                 201606302017073100000000000038000000000000038000000000000000000000000000000000000000000000000000000000000000000000000000000000000000000000000000000000000000000000000000000000000000000000000000000000000000000000000000000000000000L000000000000000                                 
02LUCIANA MILAGROS CABANILLAS CAHU2015-011JULIO                                 201607312017083100000000000038000000000000038000000000000000000000000000000000000000000000000000000000000000000000000000000000000000000000000000000000000000000000000000000000000000000000000000000000000000000000000000000000000000L000000000000000                                 
02LUCIANA MILAGROS CABANILLAS CAHU2015-011AGOSTO                                201608312017093000000000000038000000000000038000000000000000000000000000000000000000000000000000000000000000000000000000000000000000000000000000000000000000000000000000000000000000000000000000000000000000000000000000000000000000L000000000000000                                 
02LUCIANA MILAGROS CABANILLAS CAHU2015-011SETIEMBRE                             201609302017103100000000000038000000000000038000000000000000000000000000000000000000000000000000000000000000000000000000000000000000000000000000000000000000000000000000000000000000000000000000000000000000000000000000000000000000L000000000000000                                 
02LUCIANA MILAGROS CABANILLAS CAHU2015-011OCTUBRE                               201610312017113000000000000038000000000000038000000000000000000000000000000000000000000000000000000000000000000000000000000000000000000000000000000000000000000000000000000000000000000000000000000000000000000000000000000000000000L000000000000000                                 
02LUCIANA MILAGROS CABANILLAS CAHU2015-011NOVIEMBRE                             201611302017123100000000000038000000000000038000000000000000000000000000000000000000000000000000000000000000000000000000000000000000000000000000000000000000000000000000000000000000000000000000000000000000000000000000000000000000L000000000000000                                 
02LUCIANA MILAGROS CABANILLAS CAHU2015-011DICIEMBRE                             201612312018013100000000000038000000000000038000000000000000000000000000000000000000000000000000000000000000000000000000000000000000000000000000000000000000000000000000000000000000000000000000000000000000000000000000000000000000L000000000000000                                 
02ELOY RAFAEL JARA QUISPE       HU2015-012MARZO                                 201603312017043000000000000040000000000000040000000000000000000000000000000000000000000000000000000000000000000000000000000000000000000000000000000000000000000000000000000000000000000000000000000000000000000000000000000000000000L000000000000000                                 
02ELOY RAFAEL JARA QUISPE       HU2015-012ABRIL                                 201604302017053100000000000040000000000000040000000000000000000000000000000000000000000000000000000000000000000000000000000000000000000000000000000000000000000000000000000000000000000000000000000000000000000000000000000000000000L000000000000000                                 
02ELOY RAFAEL JARA QUISPE       HU2015-012MAYO                                  201605312017063000000000000040000000000000040000000000000000000000000000000000000000000000000000000000000000000000000000000000000000000000000000000000000000000000000000000000000000000000000000000000000000000000000000000000000000L000000000000000                                 
02ELOY RAFAEL JARA QUISPE       HU2015-012JUNIO                                 201606302017073100000000000040000000000000040000000000000000000000000000000000000000000000000000000000000000000000000000000000000000000000000000000000000000000000000000000000000000000000000000000000000000000000000000000000000000L000000000000000                                 
02ELOY RAFAEL JARA QUISPE       HU2015-012JULIO                                 201607312017083100000000000040000000000000040000000000000000000000000000000000000000000000000000000000000000000000000000000000000000000000000000000000000000000000000000000000000000000000000000000000000000000000000000000000000000L000000000000000                                 
02ELOY RAFAEL JARA QUISPE       HU2015-012AGOSTO                                201608312017093000000000000040000000000000040000000000000000000000000000000000000000000000000000000000000000000000000000000000000000000000000000000000000000000000000000000000000000000000000000000000000000000000000000000000000000L000000000000000                                 
02ELOY RAFAEL JARA QUISPE       HU2015-012SETIEMBRE                             201609302017103100000000000040000000000000040000000000000000000000000000000000000000000000000000000000000000000000000000000000000000000000000000000000000000000000000000000000000000000000000000000000000000000000000000000000000000L000000000000000                                 
02ELOY RAFAEL JARA QUISPE       HU2015-012OCTUBRE                               201610312017113000000000000040000000000000040000000000000000000000000000000000000000000000000000000000000000000000000000000000000000000000000000000000000000000000000000000000000000000000000000000000000000000000000000000000000000L000000000000000                                 
02ELOY RAFAEL JARA QUISPE       HU2015-012NOVIEMBRE                             201611302017123100000000000040000000000000040000000000000000000000000000000000000000000000000000000000000000000000000000000000000000000000000000000000000000000000000000000000000000000000000000000000000000000000000000000000000000L000000000000000                                 
02ELOY RAFAEL JARA QUISPE       HU2015-012DICIEMBRE                             201612312018013100000000000040000000000000040000000000000000000000000000000000000000000000000000000000000000000000000000000000000000000000000000000000000000000000000000000000000000000000000000000000000000000000000000000000000000L000000000000000                                 
02MIA VALERIA JARA QUISPE       HU2015-013MARZO                                 201603312017043000000000000040000000000000040000000000000000000000000000000000000000000000000000000000000000000000000000000000000000000000000000000000000000000000000000000000000000000000000000000000000000000000000000000000000000L000000000000000                                 
02MIA VALERIA JARA QUISPE       HU2015-013ABRIL                                 201604302017053100000000000040000000000000040000000000000000000000000000000000000000000000000000000000000000000000000000000000000000000000000000000000000000000000000000000000000000000000000000000000000000000000000000000000000000L000000000000000                                 
02MIA VALERIA JARA QUISPE       HU2015-013MAYO                                  201605312017063000000000000040000000000000040000000000000000000000000000000000000000000000000000000000000000000000000000000000000000000000000000000000000000000000000000000000000000000000000000000000000000000000000000000000000000L000000000000000                                 
02MIA VALERIA JARA QUISPE       HU2015-013JUNIO                                 201606302017073100000000000040000000000000040000000000000000000000000000000000000000000000000000000000000000000000000000000000000000000000000000000000000000000000000000000000000000000000000000000000000000000000000000000000000000L000000000000000                                 
02MIA VALERIA JARA QUISPE       HU2015-013JULIO                                 201607312017083100000000000040000000000000040000000000000000000000000000000000000000000000000000000000000000000000000000000000000000000000000000000000000000000000000000000000000000000000000000000000000000000000000000000000000000L000000000000000                                 
02MIA VALERIA JARA QUISPE       HU2015-013AGOSTO                                201608312017093000000000000040000000000000040000000000000000000000000000000000000000000000000000000000000000000000000000000000000000000000000000000000000000000000000000000000000000000000000000000000000000000000000000000000000000L000000000000000                                 
02MIA VALERIA JARA QUISPE       HU2015-013SETIEMBRE                             201609302017103100000000000040000000000000040000000000000000000000000000000000000000000000000000000000000000000000000000000000000000000000000000000000000000000000000000000000000000000000000000000000000000000000000000000000000000L000000000000000                                 
02MIA VALERIA JARA QUISPE       HU2015-013OCTUBRE                               201610312017113000000000000040000000000000040000000000000000000000000000000000000000000000000000000000000000000000000000000000000000000000000000000000000000000000000000000000000000000000000000000000000000000000000000000000000000L000000000000000                                 
02MIA VALERIA JARA QUISPE       HU2015-013NOVIEMBRE                             201611302017123100000000000040000000000000040000000000000000000000000000000000000000000000000000000000000000000000000000000000000000000000000000000000000000000000000000000000000000000000000000000000000000000000000000000000000000L000000000000000                                 
02MIA VALERIA JARA QUISPE       HU2015-013DICIEMBRE                             201612312018013100000000000040000000000000040000000000000000000000000000000000000000000000000000000000000000000000000000000000000000000000000000000000000000000000000000000000000000000000000000000000000000000000000000000000000000L000000000000000                                 
02JOSE GABRIEL FLORIANO PINTO   HU2015-014MARZO                                 201603312017043000000000000038000000000000038000000000000000000000000000000000000000000000000000000000000000000000000000000000000000000000000000000000000000000000000000000000000000000000000000000000000000000000000000000000000000L000000000000000                                 
02JOSE GABRIEL FLORIANO PINTO   HU2015-014ABRIL                                 201604302017053100000000000038000000000000038000000000000000000000000000000000000000000000000000000000000000000000000000000000000000000000000000000000000000000000000000000000000000000000000000000000000000000000000000000000000000L000000000000000                                 
02JOSE GABRIEL FLORIANO PINTO   HU2015-014MAYO                                  201605312017063000000000000038000000000000038000000000000000000000000000000000000000000000000000000000000000000000000000000000000000000000000000000000000000000000000000000000000000000000000000000000000000000000000000000000000000L000000000000000                                 
02JOSE GABRIEL FLORIANO PINTO   HU2015-014JUNIO                                 201606302017073100000000000038000000000000038000000000000000000000000000000000000000000000000000000000000000000000000000000000000000000000000000000000000000000000000000000000000000000000000000000000000000000000000000000000000000L000000000000000                                 
02JOSE GABRIEL FLORIANO PINTO   HU2015-014JULIO                                 201607312017083100000000000038000000000000038000000000000000000000000000000000000000000000000000000000000000000000000000000000000000000000000000000000000000000000000000000000000000000000000000000000000000000000000000000000000000L000000000000000                                 
02JOSE GABRIEL FLORIANO PINTO   HU2015-014AGOSTO                                201608312017093000000000000038000000000000038000000000000000000000000000000000000000000000000000000000000000000000000000000000000000000000000000000000000000000000000000000000000000000000000000000000000000000000000000000000000000L000000000000000                                 
02JOSE GABRIEL FLORIANO PINTO   HU2015-014SETIEMBRE                             201609302017103100000000000038000000000000038000000000000000000000000000000000000000000000000000000000000000000000000000000000000000000000000000000000000000000000000000000000000000000000000000000000000000000000000000000000000000L000000000000000                                 
02JOSE GABRIEL FLORIANO PINTO   HU2015-014OCTUBRE                               201610312017113000000000000038000000000000038000000000000000000000000000000000000000000000000000000000000000000000000000000000000000000000000000000000000000000000000000000000000000000000000000000000000000000000000000000000000000L000000000000000                                 
02JOSE GABRIEL FLORIANO PINTO   HU2015-014NOVIEMBRE                             201611302017123100000000000038000000000000038000000000000000000000000000000000000000000000000000000000000000000000000000000000000000000000000000000000000000000000000000000000000000000000000000000000000000000000000000000000000000L000000000000000                                 
02JOSE GABRIEL FLORIANO PINTO   HU2015-014DICIEMBRE                             201612312018013100000000000038000000000000038000000000000000000000000000000000000000000000000000000000000000000000000000000000000000000000000000000000000000000000000000000000000000000000000000000000000000000000000000000000000000L000000000000000                                 
02JUAN FRANCISCO MEDINA SANCHEZ HU2015-015MARZO                                 201603312017043000000000000038000000000000038000000000000000000000000000000000000000000000000000000000000000000000000000000000000000000000000000000000000000000000000000000000000000000000000000000000000000000000000000000000000000L000000000000000                                 
02JUAN FRANCISCO MEDINA SANCHEZ HU2015-015ABRIL                                 201604302017053100000000000038000000000000038000000000000000000000000000000000000000000000000000000000000000000000000000000000000000000000000000000000000000000000000000000000000000000000000000000000000000000000000000000000000000L000000000000000                                 
02JUAN FRANCISCO MEDINA SANCHEZ HU2015-015MAYO                                  201605312017063000000000000038000000000000038000000000000000000000000000000000000000000000000000000000000000000000000000000000000000000000000000000000000000000000000000000000000000000000000000000000000000000000000000000000000000L000000000000000                                 
02JUAN FRANCISCO MEDINA SANCHEZ HU2015-015JUNIO                                 201606302017073100000000000038000000000000038000000000000000000000000000000000000000000000000000000000000000000000000000000000000000000000000000000000000000000000000000000000000000000000000000000000000000000000000000000000000000L000000000000000                                 
02JUAN FRANCISCO MEDINA SANCHEZ HU2015-015JULIO                                 201607312017083100000000000038000000000000038000000000000000000000000000000000000000000000000000000000000000000000000000000000000000000000000000000000000000000000000000000000000000000000000000000000000000000000000000000000000000L000000000000000                                 
02JUAN FRANCISCO MEDINA SANCHEZ HU2015-015AGOSTO                                201608312017093000000000000038000000000000038000000000000000000000000000000000000000000000000000000000000000000000000000000000000000000000000000000000000000000000000000000000000000000000000000000000000000000000000000000000000000L000000000000000                                 
02JUAN FRANCISCO MEDINA SANCHEZ HU2015-015SETIEMBRE                             201609302017103100000000000038000000000000038000000000000000000000000000000000000000000000000000000000000000000000000000000000000000000000000000000000000000000000000000000000000000000000000000000000000000000000000000000000000000L000000000000000                                 
02JUAN FRANCISCO MEDINA SANCHEZ HU2015-015OCTUBRE                               201610312017113000000000000038000000000000038000000000000000000000000000000000000000000000000000000000000000000000000000000000000000000000000000000000000000000000000000000000000000000000000000000000000000000000000000000000000000L000000000000000                                 
02JUAN FRANCISCO MEDINA SANCHEZ HU2015-015NOVIEMBRE                             201611302017123100000000000038000000000000038000000000000000000000000000000000000000000000000000000000000000000000000000000000000000000000000000000000000000000000000000000000000000000000000000000000000000000000000000000000000000L000000000000000                                 
02JUAN FRANCISCO MEDINA SANCHEZ HU2015-015DICIEMBRE                             201612312018013100000000000038000000000000038000000000000000000000000000000000000000000000000000000000000000000000000000000000000000000000000000000000000000000000000000000000000000000000000000000000000000000000000000000000000000L000000000000000                                 
02FRANSUA ESPINOZA CALAGUA      HU2015-016MARZO                                 201603312017043000000000000038000000000000038000000000000000000000000000000000000000000000000000000000000000000000000000000000000000000000000000000000000000000000000000000000000000000000000000000000000000000000000000000000000000L000000000000000                                 
02FRANSUA ESPINOZA CALAGUA      HU2015-016ABRIL                                 201604302017053100000000000038000000000000038000000000000000000000000000000000000000000000000000000000000000000000000000000000000000000000000000000000000000000000000000000000000000000000000000000000000000000000000000000000000000L000000000000000                                 
02FRANSUA ESPINOZA CALAGUA      HU2015-016MAYO                                  201605312017063000000000000038000000000000038000000000000000000000000000000000000000000000000000000000000000000000000000000000000000000000000000000000000000000000000000000000000000000000000000000000000000000000000000000000000000L000000000000000                                 
02FRANSUA ESPINOZA CALAGUA      HU2015-016JUNIO                                 201606302017073100000000000038000000000000038000000000000000000000000000000000000000000000000000000000000000000000000000000000000000000000000000000000000000000000000000000000000000000000000000000000000000000000000000000000000000L000000000000000                                 
02FRANSUA ESPINOZA CALAGUA      HU2015-016JULIO                                 201607312017083100000000000038000000000000038000000000000000000000000000000000000000000000000000000000000000000000000000000000000000000000000000000000000000000000000000000000000000000000000000000000000000000000000000000000000000L000000000000000                                 
02FRANSUA ESPINOZA CALAGUA      HU2015-016AGOSTO                                201608312017093000000000000038000000000000038000000000000000000000000000000000000000000000000000000000000000000000000000000000000000000000000000000000000000000000000000000000000000000000000000000000000000000000000000000000000000L000000000000000                                 
02FRANSUA ESPINOZA CALAGUA      HU2015-016SETIEMBRE                             201609302017103100000000000038000000000000038000000000000000000000000000000000000000000000000000000000000000000000000000000000000000000000000000000000000000000000000000000000000000000000000000000000000000000000000000000000000000L000000000000000                                 
02FRANSUA ESPINOZA CALAGUA      HU2015-016OCTUBRE                               201610312017113000000000000038000000000000038000000000000000000000000000000000000000000000000000000000000000000000000000000000000000000000000000000000000000000000000000000000000000000000000000000000000000000000000000000000000000L000000000000000                                 
02FRANSUA ESPINOZA CALAGUA      HU2015-016NOVIEMBRE                             201611302017123100000000000038000000000000038000000000000000000000000000000000000000000000000000000000000000000000000000000000000000000000000000000000000000000000000000000000000000000000000000000000000000000000000000000000000000L000000000000000                                 
02FRANSUA ESPINOZA CALAGUA      HU2015-016DICIEMBRE                             201612312018013100000000000038000000000000038000000000000000000000000000000000000000000000000000000000000000000000000000000000000000000000000000000000000000000000000000000000000000000000000000000000000000000000000000000000000000L000000000000000                                 
02JOSE DIEGO CAYAO BAUTISTA     HU2015-017MARZO                                 201603312017043000000000000040000000000000040000000000000000000000000000000000000000000000000000000000000000000000000000000000000000000000000000000000000000000000000000000000000000000000000000000000000000000000000000000000000000L000000000000000                                 
02JOSE DIEGO CAYAO BAUTISTA     HU2015-017ABRIL                                 201604302017053100000000000040000000000000040000000000000000000000000000000000000000000000000000000000000000000000000000000000000000000000000000000000000000000000000000000000000000000000000000000000000000000000000000000000000000L000000000000000                                 
02JOSE DIEGO CAYAO BAUTISTA     HU2015-017MAYO                                  201605312017063000000000000040000000000000040000000000000000000000000000000000000000000000000000000000000000000000000000000000000000000000000000000000000000000000000000000000000000000000000000000000000000000000000000000000000000L000000000000000                                 
02JOSE DIEGO CAYAO BAUTISTA     HU2015-017JUNIO                                 201606302017073100000000000040000000000000040000000000000000000000000000000000000000000000000000000000000000000000000000000000000000000000000000000000000000000000000000000000000000000000000000000000000000000000000000000000000000L000000000000000                                 
02JOSE DIEGO CAYAO BAUTISTA     HU2015-017JULIO                                 201607312017083100000000000040000000000000040000000000000000000000000000000000000000000000000000000000000000000000000000000000000000000000000000000000000000000000000000000000000000000000000000000000000000000000000000000000000000L000000000000000                                 
02JOSE DIEGO CAYAO BAUTISTA     HU2015-017AGOSTO                                201608312017093000000000000040000000000000040000000000000000000000000000000000000000000000000000000000000000000000000000000000000000000000000000000000000000000000000000000000000000000000000000000000000000000000000000000000000000L000000000000000                                 
02JOSE DIEGO CAYAO BAUTISTA     HU2015-017SETIEMBRE                             201609302017103100000000000040000000000000040000000000000000000000000000000000000000000000000000000000000000000000000000000000000000000000000000000000000000000000000000000000000000000000000000000000000000000000000000000000000000L000000000000000                                 
02JOSE DIEGO CAYAO BAUTISTA     HU2015-017OCTUBRE                               201610312017113000000000000040000000000000040000000000000000000000000000000000000000000000000000000000000000000000000000000000000000000000000000000000000000000000000000000000000000000000000000000000000000000000000000000000000000L000000000000000                                 
02JOSE DIEGO CAYAO BAUTISTA     HU2015-017NOVIEMBRE                             201611302017123100000000000040000000000000040000000000000000000000000000000000000000000000000000000000000000000000000000000000000000000000000000000000000000000000000000000000000000000000000000000000000000000000000000000000000000L000000000000000                                 
02JOSE DIEGO CAYAO BAUTISTA     HU2015-017DICIEMBRE                             201612312018013100000000000040000000000000040000000000000000000000000000000000000000000000000000000000000000000000000000000000000000000000000000000000000000000000000000000000000000000000000000000000000000000000000000000000000000L000000000000000                                 
02MARTIN ESPEJO HUARACHI        HU2015-018MARZO                                 201603312017043000000000000040000000000000040000000000000000000000000000000000000000000000000000000000000000000000000000000000000000000000000000000000000000000000000000000000000000000000000000000000000000000000000000000000000000L000000000000000                                 
02MARTIN ESPEJO HUARACHI        HU2015-018ABRIL                                 201604302017053100000000000040000000000000040000000000000000000000000000000000000000000000000000000000000000000000000000000000000000000000000000000000000000000000000000000000000000000000000000000000000000000000000000000000000000L000000000000000                                 
02MARTIN ESPEJO HUARACHI        HU2015-018MAYO                                  201605312017063000000000000040000000000000040000000000000000000000000000000000000000000000000000000000000000000000000000000000000000000000000000000000000000000000000000000000000000000000000000000000000000000000000000000000000000L000000000000000                                 
02MARTIN ESPEJO HUARACHI        HU2015-018JUNIO                                 201606302017073100000000000040000000000000040000000000000000000000000000000000000000000000000000000000000000000000000000000000000000000000000000000000000000000000000000000000000000000000000000000000000000000000000000000000000000L000000000000000                                 
02MARTIN ESPEJO HUARACHI        HU2015-018JULIO                                 201607312017083100000000000040000000000000040000000000000000000000000000000000000000000000000000000000000000000000000000000000000000000000000000000000000000000000000000000000000000000000000000000000000000000000000000000000000000L000000000000000                                 
02MARTIN ESPEJO HUARACHI        HU2015-018AGOSTO                                201608312017093000000000000040000000000000040000000000000000000000000000000000000000000000000000000000000000000000000000000000000000000000000000000000000000000000000000000000000000000000000000000000000000000000000000000000000000L000000000000000                                 
02MARTIN ESPEJO HUARACHI        HU2015-018SETIEMBRE                             201609302017103100000000000040000000000000040000000000000000000000000000000000000000000000000000000000000000000000000000000000000000000000000000000000000000000000000000000000000000000000000000000000000000000000000000000000000000L000000000000000                                 
02MARTIN ESPEJO HUARACHI        HU2015-018OCTUBRE                               201610312017113000000000000040000000000000040000000000000000000000000000000000000000000000000000000000000000000000000000000000000000000000000000000000000000000000000000000000000000000000000000000000000000000000000000000000000000L000000000000000                                 
02MARTIN ESPEJO HUARACHI        HU2015-018NOVIEMBRE                             201611302017123100000000000040000000000000040000000000000000000000000000000000000000000000000000000000000000000000000000000000000000000000000000000000000000000000000000000000000000000000000000000000000000000000000000000000000000L000000000000000                                 
02MARTIN ESPEJO HUARACHI        HU2015-018DICIEMBRE                             201612312018013100000000000040000000000000040000000000000000000000000000000000000000000000000000000000000000000000000000000000000000000000000000000000000000000000000000000000000000000000000000000000000000000000000000000000000000L000000000000000                                 
02JOSE VINCES GARABITO          HU2015-019MARZO                                 201603312017043000000000000038000000000000038000000000000000000000000000000000000000000000000000000000000000000000000000000000000000000000000000000000000000000000000000000000000000000000000000000000000000000000000000000000000000L000000000000000                                 
02JOSE VINCES GARABITO          HU2015-019ABRIL                                 201604302017053100000000000038000000000000038000000000000000000000000000000000000000000000000000000000000000000000000000000000000000000000000000000000000000000000000000000000000000000000000000000000000000000000000000000000000000L000000000000000                                 
02JOSE VINCES GARABITO          HU2015-019MAYO                                  201605312017063000000000000038000000000000038000000000000000000000000000000000000000000000000000000000000000000000000000000000000000000000000000000000000000000000000000000000000000000000000000000000000000000000000000000000000000L000000000000000                                 
02JOSE VINCES GARABITO          HU2015-019JUNIO                                 201606302017073100000000000038000000000000038000000000000000000000000000000000000000000000000000000000000000000000000000000000000000000000000000000000000000000000000000000000000000000000000000000000000000000000000000000000000000L000000000000000                                 
02JOSE VINCES GARABITO          HU2015-019JULIO                                 201607312017083100000000000038000000000000038000000000000000000000000000000000000000000000000000000000000000000000000000000000000000000000000000000000000000000000000000000000000000000000000000000000000000000000000000000000000000L000000000000000                                 
02JOSE VINCES GARABITO          HU2015-019AGOSTO                                201608312017093000000000000038000000000000038000000000000000000000000000000000000000000000000000000000000000000000000000000000000000000000000000000000000000000000000000000000000000000000000000000000000000000000000000000000000000L000000000000000                                 
02JOSE VINCES GARABITO          HU2015-019SETIEMBRE                             201609302017103100000000000038000000000000038000000000000000000000000000000000000000000000000000000000000000000000000000000000000000000000000000000000000000000000000000000000000000000000000000000000000000000000000000000000000000L000000000000000                                 
02JOSE VINCES GARABITO          HU2015-019OCTUBRE                               201610312017113000000000000038000000000000038000000000000000000000000000000000000000000000000000000000000000000000000000000000000000000000000000000000000000000000000000000000000000000000000000000000000000000000000000000000000000L000000000000000                                 
02JOSE VINCES GARABITO          HU2015-019NOVIEMBRE                             201611302017123100000000000038000000000000038000000000000000000000000000000000000000000000000000000000000000000000000000000000000000000000000000000000000000000000000000000000000000000000000000000000000000000000000000000000000000L000000000000000                                 
02JOSE VINCES GARABITO          HU2015-019DICIEMBRE                             201612312018013100000000000038000000000000038000000000000000000000000000000000000000000000000000000000000000000000000000000000000000000000000000000000000000000000000000000000000000000000000000000000000000000000000000000000000000L000000000000000                                 
02ABIGAIL CORREA ROMERO         HU2015-020MARZO                                 201603312017043000000000000038000000000000038000000000000000000000000000000000000000000000000000000000000000000000000000000000000000000000000000000000000000000000000000000000000000000000000000000000000000000000000000000000000000L000000000000000                                 
02ABIGAIL CORREA ROMERO         HU2015-020ABRIL                                 201604302017053100000000000038000000000000038000000000000000000000000000000000000000000000000000000000000000000000000000000000000000000000000000000000000000000000000000000000000000000000000000000000000000000000000000000000000000L000000000000000                                 
02ABIGAIL CORREA ROMERO         HU2015-020MAYO                                  201605312017063000000000000038000000000000038000000000000000000000000000000000000000000000000000000000000000000000000000000000000000000000000000000000000000000000000000000000000000000000000000000000000000000000000000000000000000L000000000000000                                 
02ABIGAIL CORREA ROMERO         HU2015-020JUNIO                                 201606302017073100000000000038000000000000038000000000000000000000000000000000000000000000000000000000000000000000000000000000000000000000000000000000000000000000000000000000000000000000000000000000000000000000000000000000000000L000000000000000                                 
02ABIGAIL CORREA ROMERO         HU2015-020JULIO                                 201607312017083100000000000038000000000000038000000000000000000000000000000000000000000000000000000000000000000000000000000000000000000000000000000000000000000000000000000000000000000000000000000000000000000000000000000000000000L000000000000000                                 
02ABIGAIL CORREA ROMERO         HU2015-020AGOSTO                                201608312017093000000000000038000000000000038000000000000000000000000000000000000000000000000000000000000000000000000000000000000000000000000000000000000000000000000000000000000000000000000000000000000000000000000000000000000000L000000000000000                                 
02ABIGAIL CORREA ROMERO         HU2015-020SETIEMBRE                             201609302017103100000000000038000000000000038000000000000000000000000000000000000000000000000000000000000000000000000000000000000000000000000000000000000000000000000000000000000000000000000000000000000000000000000000000000000000L000000000000000                                 
02ABIGAIL CORREA ROMERO         HU2015-020OCTUBRE                               201610312017113000000000000038000000000000038000000000000000000000000000000000000000000000000000000000000000000000000000000000000000000000000000000000000000000000000000000000000000000000000000000000000000000000000000000000000000L000000000000000                                 
02ABIGAIL CORREA ROMERO         HU2015-020NOVIEMBRE                             201611302017123100000000000038000000000000038000000000000000000000000000000000000000000000000000000000000000000000000000000000000000000000000000000000000000000000000000000000000000000000000000000000000000000000000000000000000000L000000000000000                                 
02ABIGAIL CORREA ROMERO         HU2015-020DICIEMBRE                             201612312018013100000000000038000000000000038000000000000000000000000000000000000000000000000000000000000000000000000000000000000000000000000000000000000000000000000000000000000000000000000000000000000000000000000000000000000000L000000000000000                                 
02LEONARDO MARTINEZ CIENFUEGOS  HU2015-021MARZO                                 201603312017043000000000000038000000000000038000000000000000000000000000000000000000000000000000000000000000000000000000000000000000000000000000000000000000000000000000000000000000000000000000000000000000000000000000000000000000L000000000000000                                 
02LEONARDO MARTINEZ CIENFUEGOS  HU2015-021ABRIL                                 201604302017053100000000000038000000000000038000000000000000000000000000000000000000000000000000000000000000000000000000000000000000000000000000000000000000000000000000000000000000000000000000000000000000000000000000000000000000L000000000000000                                 
02LEONARDO MARTINEZ CIENFUEGOS  HU2015-021MAYO                                  201605312017063000000000000038000000000000038000000000000000000000000000000000000000000000000000000000000000000000000000000000000000000000000000000000000000000000000000000000000000000000000000000000000000000000000000000000000000L000000000000000                                 
02LEONARDO MARTINEZ CIENFUEGOS  HU2015-021JUNIO                                 201606302017073100000000000038000000000000038000000000000000000000000000000000000000000000000000000000000000000000000000000000000000000000000000000000000000000000000000000000000000000000000000000000000000000000000000000000000000L000000000000000                                 
02LEONARDO MARTINEZ CIENFUEGOS  HU2015-021JULIO                                 201607312017083100000000000038000000000000038000000000000000000000000000000000000000000000000000000000000000000000000000000000000000000000000000000000000000000000000000000000000000000000000000000000000000000000000000000000000000L000000000000000                                 
02LEONARDO MARTINEZ CIENFUEGOS  HU2015-021AGOSTO                                201608312017093000000000000038000000000000038000000000000000000000000000000000000000000000000000000000000000000000000000000000000000000000000000000000000000000000000000000000000000000000000000000000000000000000000000000000000000L000000000000000                                 
02LEONARDO MARTINEZ CIENFUEGOS  HU2015-021SETIEMBRE                             201609302017103100000000000038000000000000038000000000000000000000000000000000000000000000000000000000000000000000000000000000000000000000000000000000000000000000000000000000000000000000000000000000000000000000000000000000000000L000000000000000                                 
02LEONARDO MARTINEZ CIENFUEGOS  HU2015-021OCTUBRE                               201610312017113000000000000038000000000000038000000000000000000000000000000000000000000000000000000000000000000000000000000000000000000000000000000000000000000000000000000000000000000000000000000000000000000000000000000000000000L000000000000000                                 
02LEONARDO MARTINEZ CIENFUEGOS  HU2015-021NOVIEMBRE                             201611302017123100000000000038000000000000038000000000000000000000000000000000000000000000000000000000000000000000000000000000000000000000000000000000000000000000000000000000000000000000000000000000000000000000000000000000000000L000000000000000                                 
02LEONARDO MARTINEZ CIENFUEGOS  HU2015-021DICIEMBRE                             201612312018013100000000000038000000000000038000000000000000000000000000000000000000000000000000000000000000000000000000000000000000000000000000000000000000000000000000000000000000000000000000000000000000000000000000000000000000L000000000000000                                 
02MARIA ISABELLA MARTINEZ CIENFUHU2015-022MARZO                                 201603312017043000000000000038000000000000038000000000000000000000000000000000000000000000000000000000000000000000000000000000000000000000000000000000000000000000000000000000000000000000000000000000000000000000000000000000000000L000000000000000                                 
02MARIA ISABELLA MARTINEZ CIENFUHU2015-022ABRIL                                 201604302017053100000000000038000000000000038000000000000000000000000000000000000000000000000000000000000000000000000000000000000000000000000000000000000000000000000000000000000000000000000000000000000000000000000000000000000000L000000000000000                                 
02MARIA ISABELLA MARTINEZ CIENFUHU2015-022MAYO                                  201605312017063000000000000038000000000000038000000000000000000000000000000000000000000000000000000000000000000000000000000000000000000000000000000000000000000000000000000000000000000000000000000000000000000000000000000000000000L000000000000000                                 
02MARIA ISABELLA MARTINEZ CIENFUHU2015-022JUNIO                                 201606302017073100000000000038000000000000038000000000000000000000000000000000000000000000000000000000000000000000000000000000000000000000000000000000000000000000000000000000000000000000000000000000000000000000000000000000000000L000000000000000                                 
02MARIA ISABELLA MARTINEZ CIENFUHU2015-022JULIO                                 201607312017083100000000000038000000000000038000000000000000000000000000000000000000000000000000000000000000000000000000000000000000000000000000000000000000000000000000000000000000000000000000000000000000000000000000000000000000L000000000000000                                 
02MARIA ISABELLA MARTINEZ CIENFUHU2015-022AGOSTO                                201608312017093000000000000038000000000000038000000000000000000000000000000000000000000000000000000000000000000000000000000000000000000000000000000000000000000000000000000000000000000000000000000000000000000000000000000000000000L000000000000000                                 
02MARIA ISABELLA MARTINEZ CIENFUHU2015-022SETIEMBRE                             201609302017103100000000000038000000000000038000000000000000000000000000000000000000000000000000000000000000000000000000000000000000000000000000000000000000000000000000000000000000000000000000000000000000000000000000000000000000L000000000000000                                 
02MARIA ISABELLA MARTINEZ CIENFUHU2015-022OCTUBRE                               201610312017113000000000000038000000000000038000000000000000000000000000000000000000000000000000000000000000000000000000000000000000000000000000000000000000000000000000000000000000000000000000000000000000000000000000000000000000L000000000000000                                 
02MARIA ISABELLA MARTINEZ CIENFUHU2015-022NOVIEMBRE                             201611302017123100000000000038000000000000038000000000000000000000000000000000000000000000000000000000000000000000000000000000000000000000000000000000000000000000000000000000000000000000000000000000000000000000000000000000000000L000000000000000                                 
02MARIA ISABELLA MARTINEZ CIENFUHU2015-022DICIEMBRE                             201612312018013100000000000038000000000000038000000000000000000000000000000000000000000000000000000000000000000000000000000000000000000000000000000000000000000000000000000000000000000000000000000000000000000000000000000000000000L000000000000000                                 
02YAMILE CRISTINA CARMEN LAOS   HU2015-023MARZO                                 201603312017043000000000000038000000000000038000000000000000000000000000000000000000000000000000000000000000000000000000000000000000000000000000000000000000000000000000000000000000000000000000000000000000000000000000000000000000L000000000000000                                 
02YAMILE CRISTINA CARMEN LAOS   HU2015-023ABRIL                                 201604302017053100000000000038000000000000038000000000000000000000000000000000000000000000000000000000000000000000000000000000000000000000000000000000000000000000000000000000000000000000000000000000000000000000000000000000000000L000000000000000                                 
02YAMILE CRISTINA CARMEN LAOS   HU2015-023MAYO                                  201605312017063000000000000038000000000000038000000000000000000000000000000000000000000000000000000000000000000000000000000000000000000000000000000000000000000000000000000000000000000000000000000000000000000000000000000000000000L000000000000000                                 
02YAMILE CRISTINA CARMEN LAOS   HU2015-023JUNIO                                 201606302017073100000000000038000000000000038000000000000000000000000000000000000000000000000000000000000000000000000000000000000000000000000000000000000000000000000000000000000000000000000000000000000000000000000000000000000000L000000000000000                                 
02YAMILE CRISTINA CARMEN LAOS   HU2015-023JULIO                                 201607312017083100000000000038000000000000038000000000000000000000000000000000000000000000000000000000000000000000000000000000000000000000000000000000000000000000000000000000000000000000000000000000000000000000000000000000000000L000000000000000                                 
02YAMILE CRISTINA CARMEN LAOS   HU2015-023AGOSTO                                201608312017093000000000000038000000000000038000000000000000000000000000000000000000000000000000000000000000000000000000000000000000000000000000000000000000000000000000000000000000000000000000000000000000000000000000000000000000L000000000000000                                 
02YAMILE CRISTINA CARMEN LAOS   HU2015-023SETIEMBRE                             201609302017103100000000000038000000000000038000000000000000000000000000000000000000000000000000000000000000000000000000000000000000000000000000000000000000000000000000000000000000000000000000000000000000000000000000000000000000L000000000000000                                 
02YAMILE CRISTINA CARMEN LAOS   HU2015-023OCTUBRE                               201610312017113000000000000038000000000000038000000000000000000000000000000000000000000000000000000000000000000000000000000000000000000000000000000000000000000000000000000000000000000000000000000000000000000000000000000000000000L000000000000000                                 
02YAMILE CRISTINA CARMEN LAOS   HU2015-023NOVIEMBRE                             201611302017123100000000000038000000000000038000000000000000000000000000000000000000000000000000000000000000000000000000000000000000000000000000000000000000000000000000000000000000000000000000000000000000000000000000000000000000L000000000000000                                 
02YAMILE CRISTINA CARMEN LAOS   HU2015-023DICIEMBRE                             201612312018013100000000000038000000000000038000000000000000000000000000000000000000000000000000000000000000000000000000000000000000000000000000000000000000000000000000000000000000000000000000000000000000000000000000000000000000L000000000000000                                 
02CAMILA TASAYCO MORALES        HU2015-024MARZO                                 201603312017043000000000000040000000000000040000000000000000000000000000000000000000000000000000000000000000000000000000000000000000000000000000000000000000000000000000000000000000000000000000000000000000000000000000000000000000L000000000000000                                 
02CAMILA TASAYCO MORALES        HU2015-024ABRIL                                 201604302017053100000000000040000000000000040000000000000000000000000000000000000000000000000000000000000000000000000000000000000000000000000000000000000000000000000000000000000000000000000000000000000000000000000000000000000000L000000000000000                                 
02CAMILA TASAYCO MORALES        HU2015-024MAYO                                  201605312017063000000000000040000000000000040000000000000000000000000000000000000000000000000000000000000000000000000000000000000000000000000000000000000000000000000000000000000000000000000000000000000000000000000000000000000000L000000000000000                                 
02CAMILA TASAYCO MORALES        HU2015-024JUNIO                                 201606302017073100000000000040000000000000040000000000000000000000000000000000000000000000000000000000000000000000000000000000000000000000000000000000000000000000000000000000000000000000000000000000000000000000000000000000000000L000000000000000                                 
02CAMILA TASAYCO MORALES        HU2015-024JULIO                                 201607312017083100000000000040000000000000040000000000000000000000000000000000000000000000000000000000000000000000000000000000000000000000000000000000000000000000000000000000000000000000000000000000000000000000000000000000000000L000000000000000                                 
02CAMILA TASAYCO MORALES        HU2015-024AGOSTO                                201608312017093000000000000040000000000000040000000000000000000000000000000000000000000000000000000000000000000000000000000000000000000000000000000000000000000000000000000000000000000000000000000000000000000000000000000000000000L000000000000000                                 
02CAMILA TASAYCO MORALES        HU2015-024SETIEMBRE                             201609302017103100000000000040000000000000040000000000000000000000000000000000000000000000000000000000000000000000000000000000000000000000000000000000000000000000000000000000000000000000000000000000000000000000000000000000000000L000000000000000                                 
02CAMILA TASAYCO MORALES        HU2015-024OCTUBRE                               201610312017113000000000000040000000000000040000000000000000000000000000000000000000000000000000000000000000000000000000000000000000000000000000000000000000000000000000000000000000000000000000000000000000000000000000000000000000L000000000000000                                 
02CAMILA TASAYCO MORALES        HU2015-024NOVIEMBRE                             201611302017123100000000000040000000000000040000000000000000000000000000000000000000000000000000000000000000000000000000000000000000000000000000000000000000000000000000000000000000000000000000000000000000000000000000000000000000L000000000000000                                 
02CAMILA TASAYCO MORALES        HU2015-024DICIEMBRE                             201612312018013100000000000040000000000000040000000000000000000000000000000000000000000000000000000000000000000000000000000000000000000000000000000000000000000000000000000000000000000000000000000000000000000000000000000000000000L000000000000000                                 
02VICTOR RAUL ROJAS ARIAS       HU2015-025MARZO                                 201603312017043000000000000038000000000000038000000000000000000000000000000000000000000000000000000000000000000000000000000000000000000000000000000000000000000000000000000000000000000000000000000000000000000000000000000000000000L000000000000000                                 
02VICTOR RAUL ROJAS ARIAS       HU2015-025ABRIL                                 201604302017053100000000000038000000000000038000000000000000000000000000000000000000000000000000000000000000000000000000000000000000000000000000000000000000000000000000000000000000000000000000000000000000000000000000000000000000L000000000000000                                 
02VICTOR RAUL ROJAS ARIAS       HU2015-025MAYO                                  201605312017063000000000000038000000000000038000000000000000000000000000000000000000000000000000000000000000000000000000000000000000000000000000000000000000000000000000000000000000000000000000000000000000000000000000000000000000L000000000000000                                 
02VICTOR RAUL ROJAS ARIAS       HU2015-025JUNIO                                 201606302017073100000000000038000000000000038000000000000000000000000000000000000000000000000000000000000000000000000000000000000000000000000000000000000000000000000000000000000000000000000000000000000000000000000000000000000000L000000000000000                                 
02VICTOR RAUL ROJAS ARIAS       HU2015-025JULIO                                 201607312017083100000000000038000000000000038000000000000000000000000000000000000000000000000000000000000000000000000000000000000000000000000000000000000000000000000000000000000000000000000000000000000000000000000000000000000000L000000000000000                                 
02VICTOR RAUL ROJAS ARIAS       HU2015-025AGOSTO                                201608312017093000000000000038000000000000038000000000000000000000000000000000000000000000000000000000000000000000000000000000000000000000000000000000000000000000000000000000000000000000000000000000000000000000000000000000000000L000000000000000                                 
02VICTOR RAUL ROJAS ARIAS       HU2015-025SETIEMBRE                             201609302017103100000000000038000000000000038000000000000000000000000000000000000000000000000000000000000000000000000000000000000000000000000000000000000000000000000000000000000000000000000000000000000000000000000000000000000000L000000000000000                                 
02VICTOR RAUL ROJAS ARIAS       HU2015-025OCTUBRE                               201610312017113000000000000038000000000000038000000000000000000000000000000000000000000000000000000000000000000000000000000000000000000000000000000000000000000000000000000000000000000000000000000000000000000000000000000000000000L000000000000000                                 
02VICTOR RAUL ROJAS ARIAS       HU2015-025NOVIEMBRE                             201611302017123100000000000038000000000000038000000000000000000000000000000000000000000000000000000000000000000000000000000000000000000000000000000000000000000000000000000000000000000000000000000000000000000000000000000000000000L000000000000000                                 
02VICTOR RAUL ROJAS ARIAS       HU2015-025DICIEMBRE                             201612312018013100000000000038000000000000038000000000000000000000000000000000000000000000000000000000000000000000000000000000000000000000000000000000000000000000000000000000000000000000000000000000000000000000000000000000000000L000000000000000                                 
02GABRIEL CASTRO TAMARA         HU2015-026MARZO                                 201603312017043000000000000038000000000000038000000000000000000000000000000000000000000000000000000000000000000000000000000000000000000000000000000000000000000000000000000000000000000000000000000000000000000000000000000000000000L000000000000000                                 
02GABRIEL CASTRO TAMARA         HU2015-026ABRIL                                 201604302017053100000000000038000000000000038000000000000000000000000000000000000000000000000000000000000000000000000000000000000000000000000000000000000000000000000000000000000000000000000000000000000000000000000000000000000000L000000000000000                                 
02GABRIEL CASTRO TAMARA         HU2015-026MAYO                                  201605312017063000000000000038000000000000038000000000000000000000000000000000000000000000000000000000000000000000000000000000000000000000000000000000000000000000000000000000000000000000000000000000000000000000000000000000000000L000000000000000                                 
02GABRIEL CASTRO TAMARA         HU2015-026JUNIO                                 201606302017073100000000000038000000000000038000000000000000000000000000000000000000000000000000000000000000000000000000000000000000000000000000000000000000000000000000000000000000000000000000000000000000000000000000000000000000L000000000000000                                 
02GABRIEL CASTRO TAMARA         HU2015-026JULIO                                 201607312017083100000000000038000000000000038000000000000000000000000000000000000000000000000000000000000000000000000000000000000000000000000000000000000000000000000000000000000000000000000000000000000000000000000000000000000000L000000000000000                                 
02GABRIEL CASTRO TAMARA         HU2015-026AGOSTO                                201608312017093000000000000038000000000000038000000000000000000000000000000000000000000000000000000000000000000000000000000000000000000000000000000000000000000000000000000000000000000000000000000000000000000000000000000000000000L000000000000000                                 
02GABRIEL CASTRO TAMARA         HU2015-026SETIEMBRE                             201609302017103100000000000038000000000000038000000000000000000000000000000000000000000000000000000000000000000000000000000000000000000000000000000000000000000000000000000000000000000000000000000000000000000000000000000000000000L000000000000000                                 
02GABRIEL CASTRO TAMARA         HU2015-026OCTUBRE                               201610312017113000000000000038000000000000038000000000000000000000000000000000000000000000000000000000000000000000000000000000000000000000000000000000000000000000000000000000000000000000000000000000000000000000000000000000000000L000000000000000                                 
02GABRIEL CASTRO TAMARA         HU2015-026NOVIEMBRE                             201611302017123100000000000038000000000000038000000000000000000000000000000000000000000000000000000000000000000000000000000000000000000000000000000000000000000000000000000000000000000000000000000000000000000000000000000000000000L000000000000000                                 
02GABRIEL CASTRO TAMARA         HU2015-026DICIEMBRE                             201612312018013100000000000038000000000000038000000000000000000000000000000000000000000000000000000000000000000000000000000000000000000000000000000000000000000000000000000000000000000000000000000000000000000000000000000000000000L000000000000000                                 
02MATHIAS CUBA AMORETTI         HU2015-027MARZO                                 201603312017043000000000000038000000000000038000000000000000000000000000000000000000000000000000000000000000000000000000000000000000000000000000000000000000000000000000000000000000000000000000000000000000000000000000000000000000L000000000000000                                 
02MATHIAS CUBA AMORETTI         HU2015-027ABRIL                                 201604302017053100000000000038000000000000038000000000000000000000000000000000000000000000000000000000000000000000000000000000000000000000000000000000000000000000000000000000000000000000000000000000000000000000000000000000000000L000000000000000                                 
02MATHIAS CUBA AMORETTI         HU2015-027MAYO                                  201605312017063000000000000038000000000000038000000000000000000000000000000000000000000000000000000000000000000000000000000000000000000000000000000000000000000000000000000000000000000000000000000000000000000000000000000000000000L000000000000000                                 
02MATHIAS CUBA AMORETTI         HU2015-027JUNIO                                 201606302017073100000000000038000000000000038000000000000000000000000000000000000000000000000000000000000000000000000000000000000000000000000000000000000000000000000000000000000000000000000000000000000000000000000000000000000000L000000000000000                                 
02MATHIAS CUBA AMORETTI         HU2015-027JULIO                                 201607312017083100000000000038000000000000038000000000000000000000000000000000000000000000000000000000000000000000000000000000000000000000000000000000000000000000000000000000000000000000000000000000000000000000000000000000000000L000000000000000                                 
02MATHIAS CUBA AMORETTI         HU2015-027AGOSTO                                201608312017093000000000000038000000000000038000000000000000000000000000000000000000000000000000000000000000000000000000000000000000000000000000000000000000000000000000000000000000000000000000000000000000000000000000000000000000L000000000000000                                 
02MATHIAS CUBA AMORETTI         HU2015-027SETIEMBRE                             201609302017103100000000000038000000000000038000000000000000000000000000000000000000000000000000000000000000000000000000000000000000000000000000000000000000000000000000000000000000000000000000000000000000000000000000000000000000L000000000000000                                 
02MATHIAS CUBA AMORETTI         HU2015-027OCTUBRE                               201610312017113000000000000038000000000000038000000000000000000000000000000000000000000000000000000000000000000000000000000000000000000000000000000000000000000000000000000000000000000000000000000000000000000000000000000000000000L000000000000000                                 
